:02000000B62D1B
:10000800FF00030E83010317A5000A08A4008A0154
:1000180070080313A0000408A1000B1C1D28061E6D
:10002800172809141A28861E1A288914FE308B05E9
:1000380032288C1E28286C08223E84001A0880006A
:10004800EC0ADF308C0532280B1D3228F83081008D
:1000580003179E0A03199F0AFB308B050313200818
:10006800F00021088400031724088A00250E830065
:06007800FF0E7F0E0900DF
:06007E0000000000080074
:0E008400213083120313FD00FD0B46280800F7
:100092000F3083120313FC004730FD00FD0B4F2885
:0A00A200FC0B4F28000000000800CE
:1000AC0083160313EF01C8306F0203185F28EF0AA1
:0400BC0059280800B7
:1000C00083120317B01B6628861167288615301B1C
:1000D0006B2806116C280615B01A70288610712836
:1000E0008614301A76280313051178280313051592
:1000F000031720187E2803130716802803130712FE
:1001000087163F2087120317B0198828861189287F
:10011000861530198D2806118E280615B0189228DC
:1001200086109328861430189828031305119A28EE
:100130000313051503172018A02803130716A22878
:100140000313071287163F2087120317201CAA28C3
:080150004920AB284220080001
:10015800710DF80DF90D7408F8027508031C750F78
:10016800F902F00DF10D0F30FC00710DF80DF90DCD
:100178007408701CC528F8027508031C750FF9026D
:10018800CA28F80775080318750FF907F00DF10D5F
:10019800FC0BB9287018D6287408F80775080318D6
:0801A800750FF90700000800C3
:1001B000831203172B08003A031DE128031387015C
:1001C000FB2803172B08013A031DEA28023003130A
:1001D0008700FB2803172B08023A031DF328083079
:1001E00003138700FB2803172B08033A031DFB2882
:1001F0000A30031387000313FC3089050317AE018F
:10020000AF012D082F02031D07292C082E02031809
:100210001729FA3003138705562005308312870407
:10022000562083120317AE0A0319AF0A01290330BF
:060230000313890408001D
:100236008030831203172C06F00080307002031DF5
:10024600262900302B02031831292B08003CF00028
:100256002C08031C013EF101F10235292B08F000A0
:060266002C08F100080065
:10026C00831203172B0803193F290230031387004D
:10027C00412903138701FE3089050317AE01AF0135
:10028C002D082F02031D4C292C082E0203185B2964
:10029C00FE30031387055620831207145620831251
:1002AC000317AE0A0319AF0A462903300313890456
:0202BC00080038
:1002BE00831203172B0803196829083003138700CC
:1002CE006A2903138701FD3089050317AE01AF01BB
:1002DE002D082F02031D75292C082E0203188429C0
:1002EE00FB30031387055620831207155620831201
:1002FE000317AE0A0319AF0A6F29033003138904DB
:02030E000800E5
:100310008312031720102B08B0006020031720144D
:020320000800D3
:0E032200831203171B088A001A0882000800C5
:1003300083120313061AA629861AA6290317AB01EE
:100340002C30AC000130AD00D820BF29061AB029EE
:100350000317AB012C30AC000130AD003621BF29B2
:10036000861ABA290317AB012C30AC000130AD005E
:100370005F21BF29061EBF29861EBF29C0299829D3
:1003800001300317AB008C30AC000030AD003621DB
:02039000080063
:10039200DB29803083120317A700EE29C030A700A3
:1003A200EE299430A700EE29D430A700EE29803040
:1003B200A700EE29831203172708013A0319CA2955
:1003C2002708023A0319CF292708033A0319D22929
:1003D2002708043A0319D529D8292803F000270849
:1003E200F0077008A7007008B00060200317201003
:1003F200AA012A082907840000080319082A2A08E2
:10040200290784000008AB008821AA0AFA292014CF
:020412000800E0
:10041400831203131F151F1D102A0D2A1E08F00036
:020424000800CE
:100426008312031727082902F300F401031CF403BF
:1004360028082A02F100F201031CF203740872066E
:10044600031D272A71087306031DDF2A28082A02BE
:10045600AB00AC01031CAC031B217008831603130D
:10046600ED007108EE00831203172908270203180E
:10047600622A2A0828020318622A831603136D08C3
:10048600831203179800831603136E08831203174B
:1004960099001908003C031D522A1808003C03184D
:1004A600612A0330AB00FA30AC000030AD00D82032
:1004B600013003179802031C99034C2ADE2A2908E7
:1004C600270203188C2A28082A0203188C2A831666
:1004D60003136D08831203179800831603136E081F
:1004E6008312031799001908003C031D7C2A18087B
:1004F600003C03188B2A0130AB00FA30AC00003008
:10050600AD00D820013003179802031C9903762A00
:10051600DE2A270829020318B52A28082A02031802
:10052600B52A831603136D088312031798008316E2
:1005360003136E088312031799001908003C031D64
:10054600A62A1808003C0318B42AAB01FA30AC00FE
:100556000030AD00D820013003179802031C990320
:10056600A02ADE2A270829020318DE2A2A082802DA
:100576000318DE2A831603136D08831203179800E7
:10058600831603136E088312031799001908003C9B
:10059600031DCF2A1808003C0318DE2A0230AB00E0
:1005A600FA30AC000030AD00D820013003179802B5
:1005B600031C9903C92A892B28082A02AB00AC011F
:1005C600031CAC031B21700883160313ED0071088E
:1005D600EE00831203172A0828020318142B831629
:1005E60003136D08831203179800831603136E080E
:1005F6008312031799001908003C031D042B1808E1
:10060600003C0318132B0130AB00FA30AC0000306D
:10061600AD005F21013003179802031C9903FE2ADF
:10062600342B831603136D08831203179800831661
:1006360003136E088312031799001908003C031D63
:10064600262B1808003C0318342BAB01FA30AC00FB
:100656000030AD005F21013003179802031C990397
:10066600202B27082902AB00AC01031CAC031B217D
:10067600700883160313ED007108EE00831203174A
:10068600290827020318692B831603136D088312A2
:1006960003179800831603136E0883120317990035
:1006A6001908003C031D592B1808003C0318682B39
:1006B6000130AB00FA30AC000030AD00362101301D
:1006C60003179802031C9903532B892B83160313D4
:1006D6006D08831203179800831603136E0883129E
:1006E600031799001908003C031D7B2B1808003CD2
:1006F6000318892BAB01FA30AC000030AD0036216F
:0E070600013003179802031C9903752B08009D
:10071400831203179E019F0128081F02031D942BB7
:0C07240027081E020318972B8E2B0800DC
:10073000831203137408003A031DA72B7508003AAF
:10074000031DA72BFF30F0007F30F100002C831237
:100750000313FD01F901F801710870040319003455
:1007600071087506FA00FA1BFD09FB01F51FBD2B88
:10077000F409F509F40A0319F50AF11FC42BF0096D
:10078000F109F00A0319F10A71087504FA00FA1B5D
:10079000D92BAC207B18EC2BFD1F0034F009F1099C
:1007A000F00A0319F10AF809F909F80A0319F90A14
:1007B0000034F51FE82BF11BE42B7108F9007008D9
:1007C000F800F101F001CC2BF101F001F00A003446
:1007D000F109F009FB0AC92BF80A0319F90A740890
:1007E0007802031DCC2B75087902031DCC2BF9016F
:1007F000F801F00A0319F10AF11FCC2B0000FF34B5
:020800000800EE
:10080200831203171D08433A031D082CFE2C1D08F2
:10081200633A031D0D2CFE2C1D08653A031D122C94
:10082200FE2C1D08783A031D9F2C3130A7001C08AE
:10083200A80003136F080317A9001C08AA001322BB
:1008420003136F080317A7003130A80003136F08C2
:100852000317A9001C08AA00132203130915F43078
:100862000317A7000130A8008A230330AB008030B1
:10087200AC00AD01D8206F080317A7001C08A80020
:100882003830A9001C08AA0013220130AB008C30BA
:10089200AC000030AD003621FB308905F43003177F
:1008A200A7000130A8008A23982131300317A7003E
:1008B20003136E080317A80003136D080317A9009A
:1008C20003136E080317AA00132203136D080317FC
:1008D200A7003130A80003136D080317A900031302
:1008E2006E080317AA00132203130915F430031725
:1008F200A7000130A8008A230330AB008030AC008F
:10090200AD01D8206D080317A70003136E08031763
:10091200A80003136F080317A9001C08AA001322DA
:10092200AB018030AC00AD01D820FB308905F4303A
:100932000317A7000130A8008A23FE2C743003138A
:10094200A5002308ED002408EE002608EF00270882
:1009520003179C003130A700031324080317A800D3
:10096200031323080317A900031324080317AA007B
:10097200132203136D080317A7003130A8000313D5
:100982006D080317A90003136E080317AA001322A8
:10099200F430A7000130A8008A230313091503309D
:1009A2000317AB008030AC00AD01D820F430031740
:1009B200A7000130A8008A2303136D080317A700BC
:1009C20003136E080317A80003136F080317A90087
:1009D2001C08AA001322F430A7000130A8008A23C1
:1009E200AB018030AC00AD01D820FB308905F4307A
:0E09F2000317A7000130A8008A2398210800EF
:100A0000013083120317B00060200A227008031718
:100A1000A6007008F200F301F20DF30D7210F20D52
:100A2000F30D72107208F0007308F100FF30F4004B
:100A3000F501982370080317A6000130A7000130C4
:100A4000A8003330A900C921313026070313B100B3
:100A500001300317A7000830A8003130A900C921D0
:100A60000230A7000130A8003B30A900C921963010
:100A7000A700A8018A230313081C002D03172608CA
:040A8000F00008007A
:100A8400831603139818472D422D83120317260843
:060A9400031399000800A5
:100A9A008316031387120712051186100611861191
:100AAA008312871207128611061186100511492032
:100ABA00492049208614051587163F2087124920A8
:100ACA0087163F208712492087163F208712492020
:100ADA00051187163F208712492087163F20871263
:100AEA008610861587163F2087124920861105151C
:100AFA0087163F208712051187163F208712492043
:100B0A0087163F208712051587163F20871249202E
:100B1A00051187163F2087128615061586140515B6
:0E0B2A0087163F208712492003172014080069
:100B380091218A110A128000840A9A0A03199B0AD1
:080B4800F003031D9C2D0800C1
:100B50000C308316031399002030980090308312D4
:0C0B600098008030831687008C16080077
:100B6C0062274130831203139F004E3083169F007F
:100B7C0001308500303086008030870001308800DD
:100B8C0089018312870103308900E8308B0087309C
:100B9C0083168100F830831281004D25A825013081
:100BAC0083120317B00060200C300317B0006020D4
:100BBC009821EC0101300317B000602001300317BD
:100BCC00A7000130A800CF30A900C9210230A7002E
:100BDC000130A800C830A900C92103130818F72D4B
:100BEC00F32D53300317A6004225C8300317A70076
:100BFC00A8018A2300257008A20030307007A600D7
:100C0C00422501300317B000602001300317A70004
:100C1C000130A8001030A900C9210130A300013017
:100C2C00B000602001300317A7000130A800DF30AE
:100C3C00A900C9210313EC016C08063A0319272EED
:100C4C00222EEC0122080317A10003132308ED0048
:100C5C002408EE00250803179D0003132608EF0057
:100C6C00270803179C00031322084C3A031D502E2F
:100C7C0001300317B000602001300317A7000130CA
:100C8C00A8005B30A900C921012444300317A60039
:100C9C004225692E031721084D3A031D692E013098
:100CAC00B000602001300317A7000130A8005030BD
:100CBC00A900C9210230A7000130A8004430A900C6
:100CCC00C921A301B62E0313EC016C08063A0319D3
:100CDC00702E6B2EEC0122080317A10003132308BE
:100CEC00ED002408EE00250803179D0003132608C9
:100CFC00EF00270803179C0003132208453A031D35
:100D0C00992E01300317B000602001300317A700A3
:100D1C000130A800A030A900C921012444300317D8
:100D2C00A6004225B22E031721084D3A031DB22E00
:100D3C000130B000602001300317A7000130A8007B
:100D4C00BD30A900C9210230A7000130A800B13084
:100D5C00A900C921A301B62E03172308031D152EC4
:0E0D6C006030A700EA30A8008A23E02DBC2EDC
:100EC400223084004A3083120313F000C230031727
:100ED4009A0006309B009C25A03084003F30F0002F
:100EE4000C3003179A0007309B009C256C3084005B
:100EF4000130F000033003179A0000309B009C255A
:100F0400DF3084000E30F0004B3003179A000730B6
:100F14009B009C251030831784000830F000593062
:0E0F240003179A0007309B009C2583130800DA
:020006000034C4
:100D840020342034203420342034203420342034BF
:0E0D9400203420342034203420342034003425
:040DA20020340034C5
:100DA6004C346534763465346C343A34203400344B
:100DB60043346F346E346634723469346D343F3480
:020DC6000034F7
:100DC80050346C3461347934653472342034773477
:080DD80069346E3473340034F9
:100DE000473461346D346534203465346E34643492
:060DF00065346434003498
:100DF60050346C34613479346534723420344D3473
:100E06006F34763469346E3467342E342E342E348F
:020E16000034A6
:100E180045346E34673469346E34653420344D3467
:100E28006F34763469346E3467342E342E342E346D
:020E3800003484
:100E3A0045346E34673469346E346534203477341B
:080E4A0069346E347334003486
:100E5200473461346D346534203465346E3464341F
:060E620065346434003425
:0E0E6800533474346134723474343F340034C3
:100E7600573465346C3463346F346D3465342034E0
:100E860074346F34203441344334423453340034A0
:100E960045346E3474346534723420344D346F34D2
:0C0EA600763465342E342E342E340034A3
:100EB200473461346D34653420344F346E34003439
:02400E004A2F37
:00000001FF
